{
    "_format": "hh-sol-artifact-1",
    "contractName": "WavePortal",
    "sourceName": "contracts/WavePortal.sol",
    "abi": [
        {
            "inputs": [],
            "stateMutability": "nonpayable",
            "type": "constructor"
        },
        {
            "anonymous": false,
            "inputs": [
                {
                    "indexed": true,
                    "internalType": "address",
                    "name": "from",
                    "type": "address"
                },
                {
                    "indexed": false,
                    "internalType": "uint256",
                    "name": "timestamp",
                    "type": "uint256"
                },
                {
                    "indexed": false,
                    "internalType": "string",
                    "name": "message",
                    "type": "string"
                }
            ],
            "name": "NewWave",
            "type": "event"
        },
        {
            "inputs": [],
            "name": "getAllWaves",
            "outputs": [
                {
                    "components": [
                        {
                            "internalType": "address",
                            "name": "waver",
                            "type": "address"
                        },
                        {
                            "internalType": "string",
                            "name": "message",
                            "type": "string"
                        },
                        {
                            "internalType": "uint256",
                            "name": "timestamp",
                            "type": "uint256"
                        }
                    ],
                    "internalType": "struct WavePortal.Wave[]",
                    "name": "",
                    "type": "tuple[]"
                }
            ],
            "stateMutability": "view",
            "type": "function"
        },
        {
            "inputs": [],
            "name": "getTotalWaves",
            "outputs": [
                {
                    "internalType": "uint256",
                    "name": "",
                    "type": "uint256"
                }
            ],
            "stateMutability": "view",
            "type": "function"
        },
        {
            "inputs": [
                {
                    "internalType": "string",
                    "name": "_message",
                    "type": "string"
                }
            ],
            "name": "wave",
            "outputs": [],
            "stateMutability": "nonpayable",
            "type": "function"
        }
    ],
    "bytecode": "0x608060405234801561001057600080fd5b506100596040518060400160405280601681526020017f536d61727420436f6e7472616374696e6720465457210000000000000000000081525061005e60201b6102e01760201c565b6101e1565b6100fa8160405160240161007291906101bf565b6040516020818303038152906040527f41304fac000000000000000000000000000000000000000000000000000000007bffffffffffffffffffffffffffffffffffffffffffffffffffffffff19166020820180517bffffffffffffffffffffffffffffffffffffffffffffffffffffffff83818316178352505050506100fd60201b60201c565b50565b60008151905060006a636f6e736f6c652e6c6f679050602083016000808483855afa5050505050565b600081519050919050565b600082825260208201905092915050565b60005b83811015610160578082015181840152602081019050610145565b8381111561016f576000848401525b50505050565b6000601f19601f8301169050919050565b600061019182610126565b61019b8185610131565b93506101ab818560208601610142565b6101b481610175565b840191505092915050565b600060208201905081810360008301526101d98184610186565b905092915050565b6109b0806101f06000396000f3fe608060405234801561001057600080fd5b50600436106100415760003560e01c8063449d46c0146100465780639a2cdc0814610062578063bd43a90814610080575b600080fd5b610060600480360381019061005b919061059f565b61009e565b005b61006a610186565b6040516100779190610601565b60405180910390f35b61008861018f565b6040516100959190610806565b60405180910390f35b60016000808282546100b09190610857565b92505081905550600160405180606001604052803373ffffffffffffffffffffffffffffffffffffffff16815260200183815260200142815250908060018154018082558091505060019003906000526020600020906003020160009091909190915060008201518160000160006101000a81548173ffffffffffffffffffffffffffffffffffffffff021916908373ffffffffffffffffffffffffffffffffffffffff16021790555060208201518160010190805190602001906101769291906103a2565b5060408201518160020155505050565b60008054905090565b60606001805480602002602001604051908101604052809291908181526020016000905b828210156102d757838290600052602060002090600302016040518060600160405290816000820160009054906101000a900473ffffffffffffffffffffffffffffffffffffffff1673ffffffffffffffffffffffffffffffffffffffff1673ffffffffffffffffffffffffffffffffffffffff16815260200160018201805461023c906108dc565b80601f0160208091040260200160405190810160405280929190818152602001828054610268906108dc565b80156102b55780601f1061028a576101008083540402835291602001916102b5565b820191906000526020600020905b81548152906001019060200180831161029857829003601f168201915b50505050508152602001600282015481525050815260200190600101906101b3565b50505050905090565b610376816040516024016102f49190610958565b6040516020818303038152906040527f41304fac000000000000000000000000000000000000000000000000000000007bffffffffffffffffffffffffffffffffffffffffffffffffffffffff19166020820180517bffffffffffffffffffffffffffffffffffffffffffffffffffffffff8381831617835250505050610379565b50565b60008151905060006a636f6e736f6c652e6c6f679050602083016000808483855afa5050505050565b8280546103ae906108dc565b90600052602060002090601f0160209004810192826103d05760008555610417565b82601f106103e957805160ff1916838001178555610417565b82800160010185558215610417579182015b828111156104165782518255916020019190600101906103fb565b5b5090506104249190610428565b5090565b5b80821115610441576000816000905550600101610429565b5090565b6000604051905090565b600080fd5b600080fd5b600080fd5b600080fd5b6000601f19601f8301169050919050565b7f4e487b7100000000000000000000000000000000000000000000000000000000600052604160045260246000fd5b6104ac82610463565b810181811067ffffffffffffffff821117156104cb576104ca610474565b5b80604052505050565b60006104de610445565b90506104ea82826104a3565b919050565b600067ffffffffffffffff82111561050a57610509610474565b5b61051382610463565b9050602081019050919050565b82818337600083830152505050565b600061054261053d846104ef565b6104d4565b90508281526020810184848401111561055e5761055d61045e565b5b610569848285610520565b509392505050565b600082601f83011261058657610585610459565b5b813561059684826020860161052f565b91505092915050565b6000602082840312156105b5576105b461044f565b5b600082013567ffffffffffffffff8111156105d3576105d2610454565b5b6105df84828501610571565b91505092915050565b6000819050919050565b6105fb816105e8565b82525050565b600060208201905061061660008301846105f2565b92915050565b600081519050919050565b600082825260208201905092915050565b6000819050602082019050919050565b600073ffffffffffffffffffffffffffffffffffffffff82169050919050565b600061067382610648565b9050919050565b61068381610668565b82525050565b600081519050919050565b600082825260208201905092915050565b60005b838110156106c35780820151818401526020810190506106a8565b838111156106d2576000848401525b50505050565b60006106e382610689565b6106ed8185610694565b93506106fd8185602086016106a5565b61070681610463565b840191505092915050565b61071a816105e8565b82525050565b6000606083016000830151610738600086018261067a565b506020830151848203602086015261075082826106d8565b91505060408301516107656040860182610711565b508091505092915050565b600061077c8383610720565b905092915050565b6000602082019050919050565b600061079c8261061c565b6107a68185610627565b9350836020820285016107b885610638565b8060005b858110156107f457848403895281516107d58582610770565b94506107e083610784565b925060208a019950506001810190506107bc565b50829750879550505050505092915050565b600060208201905081810360008301526108208184610791565b905092915050565b7f4e487b7100000000000000000000000000000000000000000000000000000000600052601160045260246000fd5b6000610862826105e8565b915061086d836105e8565b9250827fffffffffffffffffffffffffffffffffffffffffffffffffffffffffffffffff038211156108a2576108a1610828565b5b828201905092915050565b7f4e487b7100000000000000000000000000000000000000000000000000000000600052602260045260246000fd5b600060028204905060018216806108f457607f821691505b60208210811415610908576109076108ad565b5b50919050565b600082825260208201905092915050565b600061092a82610689565b610934818561090e565b93506109448185602086016106a5565b61094d81610463565b840191505092915050565b60006020820190508181036000830152610972818461091f565b90509291505056fea264697066735822122098d2257900d480b7039e2880c7d2f5c4a76f4a2b5b0faad01eea6e3668b26ef864736f6c63430008080033",
    "linkReferences": {},
    "deployedLinkReferences": {}
}